:100000000C94D9000C9401010C9401010C9461062C
:100010000C9461060C9461060C9401010C94E205A9
:100020000C9401010C9401010C9401010C9426061E
:100030000C9401010C9401010C9401010C94010138
:100040000C948C0C0C9401010C9487030C946103A8
:100050000C9401010C9401010C9401010C94010118
:100060000C9401010C94010145524F4F52005374FE
:10007000657273004E7520736C6F74004552524F59
:10008000520041636365707461740047534D206989
:100090006E6974206572726F7200536372697520A5
:1000A0007061726F6C6120696D706C6963697461F5
:1000B0002031323334005363726975207061726F7E
:1000C0006C6120696D706C696369746120313233D1
:1000D000340073797374656D207374617274757014
:1000E000005061726F6C6120736368696D62617446
:1000F000613A20256400536972656E6120706F72E9
:100100006E69746120520053656E7A6F722072615D
:100110007069642061637469766174005369726503
:100120006E6120706F726E697461204C0053656E51
:100130007A6F7220696E7461727A6961742061638A
:10014000746976617400536972656E61206F7072B4
:100150006974610000000000240027002A000000EC
:100160000008000201000003040700000000000076
:10017000000000000000250028002B000000000007
:1001800023002600290004040404040404040202D9
:100190000202020203030303030301020408102006
:1001A00040800102040810200102040810206B1393
:1001B000D60C11241FBECFEFD8E0DEBFCDBF12E0BA
:1001C000A0E0B1E0E8ECF0E302C005900D92AC3D98
:1001D000B107D9F724E0ACEDB2E001C01D92A73E13
:1001E000B207E1F710E0C8EDD0E004C02197FE01AE
:1001F0000E94BA14C73DD107C9F70E94E00C0C94C5
:1002000057180C940000CF92DF92EF92FF920F9359
:100210001F93CF93DF936C017A018B01C0E0D0E094
:10022000CE15DF0589F0D8016D918D01D601ED91D4
:10023000FC910190F081E02DC6010995892B11F404
:100240007E0102C02196ECCFC701DF91CF911F91B3
:100250000F91FF90EF90DF90CF900895FC01918D6A
:10026000828D981761F0828DDF01A80FB11D5D9618
:100270008C91928D9F5F9F73928F90E008958FEF86
:100280009FEF0895FC01918D828D981731F0828D3A
:10029000E80FF11D858D90E008958FEF9FEF089591
:1002A000FC01918D228D892F90E0805C9F4F821BF5
:1002B00091098F739927089583E593E00E94500177
:1002C00021E0892B09F420E0822F0895FC01848D20
:1002D000DF01A80FB11DA35ABF4F2C91848D90E070
:1002E00001968F739927848FA689B7892C93A0894B
:1002F000B1898C9180648C93938D848D981306C002
:100300000288F389E02D80818F7D80830895EF92AC
:10031000FF920F931F93CF93DF93EC0181E0888FBF
:100320009B8D8C8D981305C0E889F989808185FDA6
:1003300024C0F62E0B8D10E00F5F1F4F0F73112797
:10034000E02E8C8DE8120CC00FB607FCFACFE889BE
:10035000F989808185FFF5CFCE010E946601F1CF3A
:100360008B8DFE01E80FF11DE35AFF4FF0820B8FDA
:10037000EA89FB898081806207C0EE89FF896083FA
:10038000E889F98980818064808381E090E0DF9151
:10039000CF911F910F91FF90EF900895CF93DF932E
:1003A000EC01888D8823C9F0EA89FB89808185FD6D
:1003B00005C0A889B9898C9186FD0FC00FB607FCCE
:1003C000F5CF808185FFF2CFA889B9898C9185FF0F
:1003D000EDCFCE010E946601E7CFDF91CF91089566
:1003E00080E090E0892B29F00E945C0181110C943F
:1003F00000000895F999FECF92BD81BD60BDFA9AC3
:10040000F99A089590912903E0912A03F0912B0322
:10041000992311F0849101C080812FEB280F2A319C
:1004200010F4805E0895803249F49F012F5F3F4FA2
:1004300030932B0320932A03EF2B31F708951F935A
:10044000CF93DF930E940202C0E0D0E01AE090ED6B
:10045000980F9A30B8F41C9F90011D9F300D112405
:10046000E901C80FD11D87FDDA95E09780912A0335
:1004700090912B03019690932B0380932A030E9463
:100480000202E5CFCE01DF91CF911F910895209117
:100490002603309127032817390771F4909124031C
:1004A00080912503981741F0E0912403F0E0E45295
:1004B000FD4F808190E008958FEF9FEF089508959C
:1004C0001F93CF93DF93DC015C962D913C915D9758
:1004D0002115310539F481E090E013969C938E93B9
:1004E00012973DC05196ED91FC91529750969C9178
:1004F0005097892F80951FB75E964C915E9741FB70
:10050000772770F941FD6095F8944081772311F0C9
:10051000492B01C048234083E9012197F1F748E0C6
:10052000508160FF02C0592B01C058235083E9015C
:100530002197F1F76695415099F7772321F0908143
:100540008923808303C08081982B90831FBF5C9692
:100550008D919C915D970197F1F721E030E0C90101
:10056000DF91CF911F9108952091260330912703A9
:100570002817390771F4809125032091240390E016
:10058000805C9F4F821B910960E470E00E945614CA
:10059000089580E090E0089520912603309127038C
:1005A00028173907B9F490912403809125039817EF
:1005B00089F0E0912403F0E0E452FD4F8081209126
:1005C000240330E02F5F3F4F2F7333272093240302
:1005D00090E008958FEF9FEF08950E94C014611579
:1005E000710579F0FB0101900020E9F73197AF0127
:1005F000461B570BDC01ED91FC910280F381E02D4D
:10060000099480E090E008954F925F926F927F92FC
:10061000EF92FF920F931F93CF93DF93CDB7DEB787
:10062000A1970FB6F894DEBF0FBECDBF7C01FA01D3
:10063000CB0119A2223008F42AE08E010F5D1F4F72
:10064000422E512C612C712CBF01A30192010E94FA
:100650006A14F901CA01015011096A3014F4605D8D
:1006600001C0695CD8016C93232B242B252B61F7E7
:10067000B801C7010E94EF02A1960FB6F894DEBF41
:100680000FBECDBFDF91CF911F910F91FF90EF90E3
:100690007F906F905F904F9008950F931F93CF932B
:1006A000DF93EC010E94EF028C016BE471E0CE015C
:1006B0000E94EF02800F911FDF91CF911F910F9148
:1006C00008951F920F920FB60F9211242F933F930C
:1006D0004F935F936F937F938F939F93AF93BF934A
:1006E000EF93FF9383E593E00E946601FF91EF9102
:1006F000BF91AF919F918F917F916F915F914F913A
:100700003F912F910F900FBE0F901F9018951F9241
:100710000F920FB60F9211242F938F939F93EF9305
:10072000FF93E0916303F09164038081E09169039A
:10073000F0916A0382FD12C0908180916C038F5FFB
:100740008F7320916D03821751F0E0916C03F0E0FC
:10075000ED5AFC4F958F80936C0301C08081FF910F
:10076000EF919F918F912F910F900FBE0F901F903F
:1007700018958F929F92AF92BF92EF92FF920F9334
:100780001F93CF93DF937B0110921F0397FF03C04A
:100790009F770AE001C001E0009731F481E0809387
:1007A0001D0388EE93E002C010921D0344EB049FEA
:1007B0009001112428173907C0F4EC01C13187E2F8
:1007C000D80710F0C0E1D7E24E01A12CB12C62E1B4
:1007D0007AE780E090E0A50194010E948C141FEF5D
:1007E000120F0A3029F106E02BC04DE2049F402D84
:1007F000112450E0EC018417950708F4EA019E01EA
:1008000040E050E00A3051F468E271E381E090E0AA
:100810000E948C141FEF120F07E00BC064E87EE10A
:1008200080E090E00E948C141FEF120F07E008C0D8
:1008300006E0CE0105966AE070E00E944214EB01EA
:1008400080911D03813059F09701DE010E94AB14A5
:1008500028EE33E040E050E00E948C1479011092C1
:10086000700087B38F6087BB82E18093B0000093F4
:10087000B1001093B300F0922103E092200382E0D4
:100880008093700080911D03813011F4539801C052
:10089000539ADF91CF911F910F91FF90EF90BF90EE
:1008A000AF909F908F9008958F929F92AF92BF923A
:1008B000CF92DF92EF92FF920F931F93CF93DF932C
:1008C000C091060180911E03882321F060912803C6
:1008D000611113C09924939470ECA72E7DE5B72E77
:1008E000EAE08E2ED4E0F0EDCF2EF7E0DF2EA4E08C
:1008F000EA2EF12C04EF11E014C070E080E090E0EB
:100900000E94B9031092280350C18636ACF5813697
:1009100009F498C054F58C3309F450C08E3381F437
:10092000CF5F0E94020220912A0330912B032F5F98
:100930003F4F30932B0320932A03853631F742C073
:10094000813209F07AC0D0930601D0920301C0929F
:100950000201F0920501E09204011093010100935D
:10096000000110921E03C4E0DCCF833649F10CF481
:100970006CC0D0E022E06BC08D3669F194F487360C
:1009800039F11CF18C3609F058C00E941F02BC01DD
:1009900090930501809304018091020190910301DD
:1009A00045C0823769F1843771F18F3609F045C04F
:1009B0000E941F02C82F80930601B3CFC150B1CF50
:1009C000D0E01FC0D0E024E042C0D0E025E03FC02E
:1009D000D0E027E03CC00E9402028C3619F410924D
:1009E0001E0304C090921E031092280380912A03D4
:1009F00090912B03019690932B0380932A0391CF20
:100A0000D1E020E024C00E941F02BC01C5010E9469
:100A10004214869EC001879E900D1124909303017D
:100A20008093020160910401709105010E944214BB
:100A3000709301016093000174CF10922B03109208
:100A40002A03B3C0D0E029E002C0D0E02BE03CE0B4
:100A5000C39F200D1124C22F0E940202982F977F5E
:100A6000933259F480912A0390912B03019690932D
:100A70002B0380932A03CF5FEFCF8D3269F48091EF
:100A80002A0390912B03019690932B0380932A03C2
:100A9000C1500E940202F1CF0091000110910101AA
:100AA0008153883058F400910201109103010E9493
:100AB0001F02BC01C8010E9442148B017801F69408
:100AC000E7940E9402028E3261F480912A03909191
:100AD0002B03019690932B0380932A030E0D1F1D69
:100AE000EECFF80180911E03882339F0C801969556
:100AF000879580932803E81BF109D11102C0CF3FED
:100B000021F4BF0180E090E042C0C13130F020EF1D
:100B10002C0F203618F02FE501C020E0822F6CE06A
:100B20000E943614682F74EF7603A0011124BA01D5
:100B3000620F711D9B016C30710540F4220F331F51
:100B4000D901AD5EBE4F2D913C9102C020E030E056
:100B5000873081F0082E02C0220F331F0A94E2F77B
:100B6000823028F0C90105966AE070E00CC0C90126
:100B700090580CC0C90126E0880F991F2A95E1F70B
:100B8000029665E070E00E944214CB01BF01DF9144
:100B9000CF911F910F91FF90EF90DF90CF90BF907A
:100BA000AF909F908F900C94B903DF91CF911F91DC
:100BB0000F91FF90EF90DF90CF90BF90AF909F90FC
:100BC0008F9008951F920F920FB60F9211242F93BA
:100BD0003F934F935F936F937F938F939F93AF93C5
:100BE000BF93EF93FF9380912003909121039C0189
:100BF000215031093093210320932003892BA9F43C
:100C00001092700078941092B1001092B30010927C
:100C1000B400539881E080931F0380912A03909140
:100C20002B03892B11F00E945404FF91EF91BF9187
:100C3000AF919F918F917F916F915F914F913F9174
:100C40002F910F900FBE0F901F9018951F920F922B
:100C50000FB60F9211248F9310928500109284008A
:100C6000809123038F5F8093230380912F038F5FF5
:100C700080932F03809123038C3361F4109223031C
:100C8000809122038F5F8093220380912E038F5FD8
:100C900080932E03809122038C3339F41092220327
:100CA00080911C038F5F80931C0380911C0388310B
:100CB00011F410921C038F910F900FBE0F901F9094
:100CC00018951F920F920FB60F9211242F933F93F6
:100CD0004F935F936F937F938F939F93AF93BF9344
:100CE000EF93FF93E0912603F0912703309709F4E7
:100CF00051C0968DA685B785858591FF04C09C91CE
:100D0000892329F447C09C91892309F043C0A38912
:100D1000B4899C918589809589238C93868997894C
:100D20000197F1F7608D718DA685B785558538E0FF
:100D300020E0CB010197F1F7822F90E09595879500
:100D4000282F4C91452309F02068315091F7868D6A
:100D500081FD20958091250390E001968F7399275E
:100D600030912403381749F0A0912503B0E0A45234
:100D7000BD4F2C938093250303C0868D8160868FA1
:100D8000828D938D0197F1F7A389B4899C91858910
:100D9000892B8C93FF91EF91BF91AF919F918F9190
:100DA0007F916F915F914F913F912F910F900FBE67
:100DB0000F901F901895E0912603F0912703E817F4
:100DC000F90769F4A389B4899C9185898095892361
:100DD0008C93109227031092260381E0089580E0FF
:100DE000089581E080932D035F9A089510922D035A
:100DF0005F980895F999FECF81E090E092BD81BDA2
:100E0000F89A80B524E6829FC0011124F999FECF9B
:100E100012BC11BCF89A20B5820F911D0895CF9392
:100E200064E670E00E944214C62F682F80E090E0D4
:100E30000E94FA016C2F81E090E0CF910C94FA01AE
:100E40000F931F93CF938C01C1E06FE373E08C2F5E
:100E50000E949D0B813031F4C8010E94EE0BCF5FE0
:100E6000C73099F7CF911F910F910895AF92BF921C
:100E7000CF92DF92EF92FF920F931F93CF93DF9366
:100E8000CDB7DEB7C351D1400FB6F894DEBF0FBE69
:100E9000CDBF8091D804811176C081E08093D804C1
:100EA0008EE491E00E94B2091092DD0488E893E19B
:100EB0009093DF048093DE048CED95E09093E10441
:100EC0008093E0040E94810A6093E2047093E3043B
:100ED0008093E4049093E50410920F048FE094E073
:100EE0009093DB048093DA041092DC0488EF91E0A5
:100EF0000E94A30981110AC00E948D0A8823B1F3C0
:100F0000813021F08430D9F51EEF3AC08DE591E0B3
:100F10000E94A309882369F06AE370E08FE094E0FF
:100F20000E94C514009729F001960E941D15182FE4
:100F300001C010E01092DD0484E190E09093DF04A2
:100F40008093DE049093E1048093E0040E94810A80
:100F50006093E2047093E3048093E4049093E504C7
:100F600010920F048FE094E09093DB048093DA04F6
:100F70001092DC040E948D0A8823E1F301C010E086
:100F80001092D80401C01FEFC12E012E000CDD0805
:100F90001C141D040CF0F0C0112309F481C08091D1
:100FA000D80481117DC081E08093D80410923F0362
:100FB00084E691E00E94B209812F90E00E94E0094E
:100FC00082E092E00E94B2094DE651E064E670E0F2
:100FD00088E893E10E94690B823029F0843009F09F
:100FE00059C00EEF58C083E791E00E94A309811118
:100FF00008C080E891E00E94A309811104C003E0C9
:1010000003C001E001C002E06CE270E08FE094E018
:101010000E94C51402965C0162E270E00E94C51451
:101020007C01009739F0FC011082B5018FE393E059
:101030000E94D9146AE070E0C70101960E94C514AD
:10104000009749F17C01FFEFEF1AFF0A6DE070E0B5
:10105000C7010E94C514009711F0FC011082F7012E
:1010600001900020E9F73197EE19FF09EA3730F4D3
:10107000B701CE0101960E94D9140DC089E7F7018E
:10108000DE01119601900D928A95E1F7EC961FAE64
:10109000EC9701C000E01092D804002309F46EC060
:1010A00001E0BE017395802F0E949D0B813049F4B1
:1010B000BE0173958FE393E00E94D014892B09F44D
:1010C0006AC00F5F073069F7BE016F5F7F4F87EB24
:1010D00091E00E94D014892BB1F401E0BE01739518
:1010E000802F0E949D0B813009F457C08091D80455
:1010F000882309F45DC082E890E00E94EF098BE844
:1011000091E00E94EE0B04E01123F1F18091D804EC
:1011100081113AC081E08093D8048EEA91E00E9468
:10112000B209812F90E00E94E00982E092E00E94E3
:10113000B20948EF51E062E370E088E893E10E9471
:10114000690B8230E9F08430E9F41EEF1092D80484
:101150001130D1F48EE690E00E94EF09053061F481
:10116000CE0101960E943B1570931101609310010E
:101170001093300310932C03C60149C000E0C4CF84
:1011800011E0E4CF10E0E2CF10E088E690E00E94AA
:10119000EF09C8013CC005E0B7CF0F5F073009F089
:1011A0009DCF84E790E00E94EF0986EA91E0A9CF05
:1011B00081E08093D80484E991E00E94B209802FF5
:1011C00090E00E94E0098DE991E00E94B2098FE36E
:1011D00093E00E94B2098AE591E00E94B20948EFCB
:1011E00051E062E370E088E893E10E94690B82308D
:1011F00011F481E001C080E01092D80481117BCF0E
:101200008CE790E00E94EF0980EA91E07ACFCD5E12
:10121000DE4F0FB6F894DEBF0FBECDBFDF91CF918A
:101220001F910F91FF90EF90DF90CF90BF90AF9004
:101230000895833081F028F4813099F08230A1F054
:1012400008958730A9F08830B9F08430D1F48091C6
:1012500080008F7D03C0809180008F778093800015
:10126000089584B58F7702C084B58F7D84BD0895BD
:101270008091B0008F7703C08091B0008F7D809304
:10128000B0000895CF93DF9390E0FC01E656FE4F47
:101290002491FC01EA57FE4F8491882361F190E08C
:1012A000880F991FFC01EC5AFE4FC591D491FC01A7
:1012B000EE58FE4FA591B491611109C09FB7F89403
:1012C0008881209582238883EC912E230BC0623085
:1012D00061F49FB7F8943881822F809583238883A7
:1012E000EC912E2B2C939FBF06C08FB7F894E8810A
:1012F0002E2B28838FBFDF91CF9108953FB7F894AD
:1013000080913B0390913C03A0913D03B0913E033B
:1013100026B5A89B05C02F3F19F00196A11DB11D50
:101320003FBFBA2FA92F982F8827820F911DA11D8B
:10133000B11DBC01CD0142E0660F771F881F991FC8
:101340004A95D1F708952091DC04222341F0BC0195
:101350008FE094E00E94E01421E0892B09F420E062
:10136000822F0895BC0180EF93E00C94EF02CF929E
:10137000DF92EF92FF92CF93DF936B017C01E091BC
:10138000F003F091F1030190F081E02D6DE280EF28
:1013900093E00995EC0144275527BA014C195D09E2
:1013A0006E097F092AE080EF93E00E9404038C0F0E
:1013B0009D1FDF91CF91FF90EF90DF90CF90089528
:1013C000AC01990F660B770B77FF04C0CB01BA0114
:1013D0000C94B7092AE080EF93E00C9404030F9378
:1013E0001F93CF93DF938C01C0E0D0E0F801EC0FA6
:1013F000FD1F6491662371F0E0915303F091540353
:101400000190F081E02D83E593E00995892B11F09F
:101410002196ECCF6BE471E083E593E00E94EF024C
:101420008C0F9D1FDF91CF911F910F9108951F93F6
:10143000CF93DF93282F30E0F901E25AFE4F8491D9
:10144000F901E656FE4FD491F901EA57FE4FC491D7
:10145000CC23C9F0162F81110E941909EC2FF0E05E
:10146000EE0FFF1FEE58FE4FA591B4918FB7F89481
:10147000111105C09C91ED2FE095E92302C0EC917C
:10148000ED2BEC938FBFDF91CF911F9108958F9239
:101490009F92AF92BF92CF92DF92EF92FF926B0139
:1014A0007C010E947E094B015C01C114D104E1045E
:1014B000F104F1F00E947E09DC01CB018819990941
:1014C000AA09BB09883E9340A105B10570F321E04C
:1014D000C21AD108E108F10888EE880E83E0981E50
:1014E000A11CB11CC114D104E104F10419F7DDCF32
:1014F000FF90EF90DF90CF90BF90AF909F908F9034
:1015000008952FB7F8946091370370913803809154
:10151000390390913A032FBF08950F931F93CF93F0
:10152000DF93A8958091DD04811136C080EF93E0B0
:101530000E94B402892B19F50E94810A0091E204ED
:101540001091E3042091E4043091E504AB01BC0167
:10155000401B510B620B730B8091DE049091DF04F2
:10156000A0E0B0E0481759076A077B07A8F0E091B0
:10157000DC04F0E0E15FFB4F1082D4E00EC00E947B
:10158000810A6093E2047093E3048093E4049093EF
:10159000E50481E08093DD04D0E08091DD048130BA
:1015A00009F05DC080EF93E00E94B402C82F882349
:1015B00061F10E94810A6093E2047093E3048093D6
:1015C000E4049093E50421C0C1508091DC04883C80
:1015D000F8F40091DA041091DB0480EF93E00E94AC
:1015E000CC02F80180838091DA049091DB040196AB
:1015F0009093DB048093DA04E091DC04EF5FE093E6
:10160000DC04F0E0E15FFB4F1082C111DDCF05C0CB
:1016100080EF93E00E94CC02F8CF0E94810A0091F3
:10162000E2041091E3042091E4043091E504AB015D
:10163000BC01401B510B620B730B8091E004909135
:10164000E104A0E0B0E0481759076A077B0738F0CB
:10165000E091DC04F0E0E15FFB4F1082D1E0E1E7D4
:10166000F1E08491EDEAF1E01491E9E9F1E0C4914F
:10167000CC2371F081110E941909EC2FF0E0EE0FDC
:10168000FF1FE458FE4FA591B491EC91E123D9F4EA
:10169000D130C9F40FE014E08091DC0490E09801AF
:1016A0002F5034402817390774F4F80161918F01E5
:1016B000E0915303F09154030190F081E02D83E514
:1016C00093E00995E9CF8D2FDF91CF911F910F9175
:1016D0000895CF93DF93EA011092DD049093DF0425
:1016E0008093DE047093E1046093E0040E94810A19
:1016F0006093E2047093E3048093E4049093E50420
:1017000010920F048FE094E09093DB048093DA044E
:101710001092DC040E948D0A8823E1F3813039F4B1
:10172000CE010E94A309811104C083E003C084E0BC
:1017300001C082E0DF91CF9108950F931F93CF9363
:10174000DF93882309F442C09091D804911140C0DE
:101750008B01C82F81E08093D804FB0110828BEBB2
:1017600092E00E94B2098C2F90E00E94E00982E092
:1017700092E00E94B20944EC52E062E370E088E833
:1017800093E10E94690B823021F08430D9F48EEF0E
:101790001AC062E270E08FE094E00E94C5140097E6
:1017A00089F0EC01219662E270E0CE010E94C5143E
:1017B000009711F0FC011082BE01C8010E94D914EB
:1017C00081E001C080E01092D80403C08DEF01C019
:1017D0008FEFDF91CF911F910F9108950F931F937A
:1017E000CF938C0161E08DE00E94170A8091D804AC
:1017F000811138C081E08093D804C3E08AEC92E084
:101800000E94B2098FE393E00E94B2098AE591E059
:101810000E94B20944ED52E062E370E088EE93E08A
:101820000E94690B823019F0C15041F713C0C80102
:101830000E94B2096AE180EF93E00E94600246EDE7
:1018400052E068E873E188E59BE10E94690B823011
:1018500059F7C1E01092D80460E08DE00E94170AA9
:101860008C2F01C08FEFCF911F910F910895AF92F0
:10187000BF92CF92DF92EF92FF920F931F93CF937D
:101880008C017B016A01C0E08FE0A82E84E0B82EB5
:10189000B80180EF93E00E944D031092DD04F092B6
:1018A000DF04E092DE04D092E104C092E0040E94E2
:1018B000810A6093E2047093E3048093E4049093BC
:1018C000E50410920F04B092DB04A092DA041092A7
:1018D000DC040E948D0A8823E1F3813039F488EF1B
:1018E00091E00E94A309882311F00BC08FEFCF5F16
:1018F000C53041F064EF71E080E090E00E94470A5B
:10190000C7CF81E0CF911F910F91FF90EF90DF90B3
:10191000CF90BF90AF9008951F920F920FB60F9285
:1019200011242F933F938F939F93AF93BF938091F5
:10193000370390913803A0913903B0913A03309165
:10194000E60423E0230F2D3720F40196A11DB11DDD
:1019500005C026E8230F0296A11DB11D2093E604C1
:101960008093370390933803A0933903B0933A03DD
:1019700080913B0390913C03A0913D03B0913E03C5
:101980000196A11DB11D80933B0390933C03A0934E
:101990003D03B0933E03BF91AF919F918F913F91D3
:1019A0002F910F900FBE0F901F9018958FE391E02D
:1019B0009093F1038093F00380EF93E00C94DB06A7
:1019C000CF93DF93CDB7DEB7A1970FB6F894DEBF04
:1019D0000FBECDBF789484B5826084BD84B581602C
:1019E00084BD85B5826085BD85B5816085BD8091EA
:1019F0006E00816080936E00109281008091810062
:101A00008260809381008091810081608093810059
:101A1000809180008160809380008091B10084601B
:101A20008093B1008091B00081608093B00080917C
:101A30007A00846080937A0080917A00826080933B
:101A40007A0080917A00816080937A0080917A0098
:101A5000806880937A001092C100E0916303F09156
:101A6000640382E08083E0915F03F0916003108261
:101A7000E0916103F091620380E1808310926B0337
:101A8000E0916703F091680386E08083E09165034D
:101A9000F0916603808180618083E0916503F0911D
:101AA0006603808188608083E0916503F09166031E
:101AB000808180688083E0916503F0916603808176
:101AC0008F7D808364E670E080E090E00E94470AAA
:101AD00082ED90E00E94EF0987B1876087B93D9859
:101AE000459A84B1807F84B984B1806384B985B11B
:101AF0008F6085B98AB18A688AB98AB18A788AB9C9
:101B00008BB185678BB92FEF39EF40E02150304022
:101B10004040E1F700C00000F8941092800010925D
:101B20008100109285001092840088E09DE39093DC
:101B30008900809388008091810088608093810073
:101B40008091810081608093810080918100846018
:101B50008093810080916F00826080936F0010926B
:101B600023031092220310922F0310922E037894D5
:101B7000359908C086EB90E00E94EF0982ED94E071
:101B80000E940F072C980E94F6060E94FA068B39D5
:101B9000944641F48AE990E00E94EF0982ED94E0D6
:101BA0000E940F070E94FA0690930F0180930E0186
:101BB00010922C0381E08093D80410920B041092B1
:101BC0000A0410920904109208041092070410925B
:101BD00006048DE991E090930D0480930C0490919C
:101BE000FC03963108F057C02DEB30E0309307042A
:101BF000209306042BE931E0309309042093080474
:101C00002CE231E030930B0420930A042091680009
:101C1000983050F031E09E3008F430E081E001C0AF
:101C2000880F3A95EAF701C084E0822B8093680020
:101C3000983038F09E3040F0963148F020E030E0A7
:101C400008C02DE630E005C02BE630E002C02CE6EF
:101C500030E03093040420930304983030F481E0A2
:101C600001C0880F9A95EAF70EC0292F30E09E3008
:101C700018F42850310902C02E50310981E001C00A
:101C8000880F2A95EAF78093050480910C049091BF
:101C90000D040197F1F780910A0490910B04892BB0
:101CA00021F1809126039091270373E0803F9707ED
:101CB000E1F0009711F00E94DB0680910E048E7F08
:101CC00080930E04109225031092240380EF93E07A
:101CD0009093270380932603E0910304F09104047A
:101CE000908180910504892B808368EE73E080E009
:101CF00090E00E94470A44E650E064EF71E08DEB0B
:101D000091E00E94370C8F3FA1F461E088E00E94CF
:101D1000170A60EB74E080E090E00E94470A60E000
:101D200088E00E94170A68E873E180E090E00E9472
:101D3000470A68E873E180E090E00E94470A68E89B
:101D400073E180E090E00E94470A81E08093D8042C
:101D500042E350E068EE73E080EC91E00E94370CC3
:101D60001092D80444E650E064EF71E08DEB91E00E
:101D70000E94370C813009F04CC09091D804911129
:101D800024C08093D80442E350E064EF71E085EC16
:101D900091E00E94370C42E350E064EF71E08FEC79
:101DA00091E00E94370C42E350E064EF71E089ED6E
:101DB00091E00E94370C1092D80442E350E068EEA4
:101DC00073E083EE91E00E94370C81E08093D804A9
:101DD00080EF91E00E94B2092AE040E050E0BA01B1
:101DE00080EF93E00E94040382E092E00E94B20937
:101DF00064EF71E080E090E00E94470A1092D804FE
:101E000064EF71E083E593E00E944D0300E011E090
:101E100005C08BE890E00E94EF09F8CF6FE373E014
:101E2000812F0E949D0B813009F40F5F1F5F1730D7
:101E3000A9F7402F50E060E070E02AE083E593E0EE
:101E40000E9404036BE471E083E593E00E94EF02DB
:101E500081E0809312012C9A99E288E10FB6F89400
:101E6000A895809360000FBE909360008E010F5F75
:101E70001F4F84E0282E82E0382EEE24EA94F12CC5
:101E80002CE1C22E22E0D22E31EE432E30E0532E32
:101E900047E7A42E42E0B42E56EF652E50E0752E93
:101EA0006CE1862E61E0962E8FEF90E7A2E08150E4
:101EB0009040A040E1F700C00000EAEAF2E0D8015B
:101EC00081E101900D928A95E1F788B1866088B929
:101ED00040988FE39CE90197F1F700C000001B993F
:101EE0006CC280910701843609F067C262E370E03A
:101EF00088EB9BE00E94B9038AE0809307012AE007
:101F000020930D012F3F09F471C02B3049F410923A
:101F100031036BEF71E083E593E00E944D0324C031
:101F200080913103843000F52A30F1F0E82FF0E0A1
:101F3000E85FFE4F20831F922F931F928F933F9253
:101F40002F921F930F930E94FA14B80183E593E038
:101F50000E944D03809131038F5F809331030FB650
:101F6000F894DEBF0FBECDBF809131038430F1F510
:101F700080910D018A30D1F5109231033091090121
:101F800020910A014091080168EE73E0469FC0016C
:101F9000479F900D112474E6379F800D911D1124E9
:101FA000AAE02A9F800D911D112420910B01820F20
:101FB000911D909311018093100119829F938F932B
:101FC000AEE0B2E0BF93AF931F930F930E94FA1459
:101FD000B80183E593E00E944D0381E080933003D4
:101FE0000F900F900F900F900F900F9080913003F3
:101FF000882309F437C110922F038091100190912A
:10200000110120910E0130910F018217930709F001
:102010006AC08091340381116DC061E172E083E593
:1020200093E00E944D0310923303109230031092FC
:102030007000D0922B03C0922A03109229031092B1
:1020400028030E94540480911201811104C08091E0
:102050002D038823B9F00E94F606109212012C98E5
:1020600060E372E083E593E00E944D03F09211017A
:10207000E092100180912C03882309F4F3C080E3DF
:1020800092E02CC06AE372E083E593E00E944D0386
:1020900080912F038E3188F464E670E08EE694E13F
:1020A0000E94B903A8953FEF49E668E131504040EE
:1020B0006040E1F700C00000EBCF0E94F60681E02F
:1020C000809312012C9AF0921101E09210018091FC
:1020D0002C03882309F4C6C083E492E00E94EE0B2F
:1020E00010922C03BFC0009729F0209134032223C3
:1020F00009F48EC062E370E08CED95E00E94B903B4
:102100006AE472E083E593E00E944D03109230038D
:1021100081E080933403809110019091110120910E
:102120000E0130910F018217930729F0209132039D
:10213000222309F453C069E572E083E593E00E942D
:102140004D031092300380911001909111018F3F47
:102150009105E1F10097D1F1209132032223B1F1F1
:102160000E940F0710927000D0922B03C0922A0396
:1021700010922903109228030E94540480911001A8
:102180009091110190930F0180930E0166E672E029
:1021900083E593E00E944D0380910F018F9380911E
:1021A0000E018F935F924F921F930F930E947F15A2
:1021B000C8010E94200710923403109232030F903E
:1021C0000F900F900F900F900F904CC0F092110154
:1021D000E092100181E08093320344C0892B09F41E
:1021E00041C010927000B0922B03A0922A0310926B
:1021F0002903109228030E94540468E872E083E5E2
:1022000093E00E944D0310923003109234032AC0D1
:102210008F3F910539F1809133038F5F80933303B2
:1022200010927000B0922B03A0922A0310922903FF
:10223000109228030E9454041092300380913303BB
:10224000843081F480911201882361F00E94F106AC
:102250006BE972E083E593E00E944D031092330333
:1022600010922E0380911201882341F080912D035A
:10227000811104C04C99EFC14D99EDC180911201BB
:10228000811105C080913503811129C052C0809110
:102290002D038111F7CF4A9BF5CF80913503811132
:1022A000F1CF8DE291E00E94EF0910922F0381E0BF
:1022B000809335032FE062E370E08CED95E029A375
:1022C0000E94B9037FEF89E698E171508040904009
:1022D000E1F700C0000029A1215069F7D3CF809118
:1022E0002F0364E10E943614911123C0109235032C
:1022F000809112018823E9F080912D03811119C08A
:102300000E94F10610922E0382E0809336039F9282
:102310008F921F930F930E947F15B80183E593E07E
:102320000E944D03C8010E9420070F900F900F904C
:102330000F904E9908C080912F0364E10E943614DB
:102340009F3009F4A6C180913603813029F4809131
:102350002F0380FDA5C10AC0823041F480912F0374
:1023600063E00E943614992309F49AC180913603E0
:102370008150823020F480912F0380FF93C180919F
:102380001201811103C0109236032C9880912E0304
:10239000823021F480912D03811186C10E94810A2F
:1023A000613177428105910520F00E94810A0E94E7
:1023B0003607A8950E94F00177CD1B9B04C0809141
:1023C00007018A3089F01A9913C080910701843679
:1023D00079F462E370E088EB9BE00E94B90387E048
:1023E0008093070127E08CCD84E680930701EBCF33
:1023F0001A9B04C080910701873039F0199909C0F0
:1024000080910701843629F41BC084E6809307017C
:10241000F5CF199B04C0809107018430E1F0189931
:102420001EC0809107018436D1F462E370E088EB2E
:102430009BE00E94B90381E08093070121E060CD19
:1024400062E370E088EB9BE00E94B90384E0809334
:10245000070124E055CD84E680930701E0CF189B67
:1024600004C0809107018130F1F088B1856088B99E
:102470004198AFE3BCE91197F1F700C0000083B1C8
:10248000282F287083FD13C080910701843679F4CA
:1024900062E370E088EB9BE029A30E94B9031092ED
:1024A000070129A12DCD84E680930701DECF1B9B78
:1024B00004C080910701882389F01A9913C0809184
:1024C0000701843679F462E370E088EB9BE00E94B8
:1024D000B90388E08093070128E012CD84E6809359
:1024E0000701EBCF1A9B04C080910701883089F067
:1024F000199913C080910701843679F462E370E082
:1025000088EB9BE00E94B90385E08093070125E0FA
:10251000F7CC84E680930701EBCF199B04C0809130
:102520000701853089F0189913C08091070184361E
:1025300079F462E370E088EB9BE00E94B90382E0EB
:102540008093070122E0DCCC84E680930701EBCF87
:10255000189B04C0809107018230D9F088B1836054
:1025600088B942988FE39CE90197F1F700C0000019
:102570001B9913C080910701843679F462E370E0FF
:1025800088EB9BE00E94B9038BE0809307012BE06E
:10259000B7CC84E680930701E1CF1B9B04C08091F8
:1025A00007018B3039F01A9909C0809107018436F0
:1025B00029F41BC084E680930701F5CF1A9B04C061
:1025C000809107018930E1F019991EC080910701BF
:1025D0008436D1F462E370E088EB9BE00E94B9039B
:1025E00086E08093070126E08BCC62E370E088EB05
:1025F0009BE00E94B90389E08093070129E080CC29
:1026000084E680930701E0CF199B04C08091070105
:10261000863089F0189913C080910701843679F4C7
:1026200062E370E088EB9BE00E94B90383E0809353
:10263000070123E065CC84E680930701EBCF189B6C
:1026400004C080910701833011F02FEF59CC84E64C
:1026500080930701FACF87E091E00E94EF090E9482
:10266000F10610922E0381E0809336037F926F92E1
:102670001F930F930E947F15B80183E593E00E949A
:102680004D03C8010E9420070F900F900F900F90EC
:10269000F5CD64EB70E088EB9BE00E94B90353CE6C
:1026A0002C9864CE2C9A6BCE0E94F606A6E4B1E07C
:1026B000BF93AF931F930F930E947F15B80183E5DB
:1026C00093E00E944D03C8010E9420070F900F90D5
:1026D0000F900F9063CE109256031092550388EE20
:1026E00093E0A0E0B0E08093570390935803A09349
:1026F0005903B0935A032FE231E0309354032093EF
:10270000530325EC30E03093600320935F0324EC07
:1027100030E0309362032093610320EC30E030938B
:1027200064032093630321EC30E03093660320932D
:10273000650322EC30E0309368032093670326ECB6
:1027400030E030936A032093690310926C03109277
:102750006D0310926E0310926F031092F3031092A8
:10276000F2038093F4039093F503A093F603B093E0
:10277000F7038FE391E09093F1038093F0031092BD
:102780000704109206041092090410920804109293
:102790000B0410920A0410920D0410920C04609124
:1027A0000E046E7F6D7F60930E046695617081E00C
:1027B000682782E10E94170A61E082E10E944209D3
:1027C000ECEAF1E0E491E0930004E8E9F1E0E4915F
:1027D000F0E0EE0FFF1FEE58FE4F8591949190931D
:1027E00002048093010460E081E10E94420980912B
:1027F0000E0481FD04C061E081E10E94170A81E1BD
:102800008093FC03EBEAF1E0E491E093FD03E7E958
:10281000F1E0E491F0E0EE0FFF1FE458FE4F8591E8
:1028200094919093FF038093FE0361E088E00E94FF
:1028300042091092D8041092D9041092DB0410922D
:10284000DA041092DC041092DD041092DF0410927E
:10285000DE041092E1041092E0041092E20410925F
:10286000E3041092E4041092E5040895991B79E0C2
:1028700004C0991F961708F0961B881F7A95C9F710
:1028800080950895AA1BBB1B51E107C0AA1FBB1F5F
:10289000A617B70710F0A61BB70B881F991F5A95EC
:1028A000A9F780959095BC01CD01089597FB072E5F
:1028B00016F4009407D077FD09D00E94421407FC5B
:1028C00005D03EF4909581959F4F08957095619540
:1028D0007F4F0895A1E21A2EAA1BBB1BFD010DC05C
:1028E000AA1FBB1FEE1FFF1FA217B307E407F507C0
:1028F00020F0A21BB30BE40BF50B661F771F881F9C
:10290000991F1A9469F760957095809590959B0131
:10291000AC01BD01CF010895052E97FB1EF4009474
:102920000E94A31457FD07D00E946A1407FC03D02D
:102930004EF40C94A31450954095309521953F4F3B
:102940004F4F5F4F089590958095709561957F4F9B
:102950008F4F9F4F0895A29FB001B39FC001A39FC7
:10296000700D811D1124911DB29F700D811D1124C8
:10297000911D0895EE0FFF1F0590F491E02D09942D
:1029800081E090E0F8940C945718FC01819186172F
:1029900021F08823D9F7992708953197CF01089519
:1029A000FB01DC018D91019080190110D9F3990B85
:1029B0000895FB01DC0101900D920020E1F70895DC
:1029C000FB0151915523A9F0BF01DC014D91451741
:1029D0004111E1F759F4CD010190002049F04D91EA
:1029E00040154111C9F3FB014111EFCF81E090E0A7
:1029F00001970895AEE0B0E0E0E0F5E10C942E1808
:102A00000D891E8986E08C831A8309838FEF9FE7E7
:102A10009E838D83AE01475E5F4F6F89788DCE01B7
:102A200001960E94A2152F813885F801E20FF31F4D
:102A300010822E96E4E00C944A18FC01882799270E
:102A4000E89421912032E9F3293010F02E30C8F3B8
:102A50002B3241F02D3239F4689404C00E9477156E
:102A6000820F911D219120532A30C0F31EF49095BE
:102A700081959F4F08951F93FC0199278827BC01DA
:102A8000E89411911032E9F3193010F01E30C8F3B8
:102A90001B3251F01D3249F4689406C00E94621541
:102AA000610F711D811D911D119110531A30B0F3EA
:102AB0003EF490958095709561957F4F8F4F9F4F15
:102AC0001F910895592F482F372F262F660F771FF4
:102AD000881F991F660F771F881F991F620F731F2A
:102AE000841F951F660F771F881F991F08957AE02E
:102AF000979F902D879F802D910D11240895AEE012
:102B0000B0E0E5E8F5E10C942E180D891E898EE001
:102B10008C831A8309838FEF9FE79E838D83AE0199
:102B2000475E5F4F6F89788DCE0101960E94A21596
:102B30002F813885F801E20FF31F10822E96E4E012
:102B40000C944A18ACE0B0E0E8EAF5E10C942018E7
:102B50007C016B018A01FC0117821682838181FF4F
:102B6000BDC1CE0101964C01F7019381F60193FDA1
:102B7000859193FF81916F01882309F4ABC1853260
:102B800039F493FD859193FF81916F01853229F48A
:102B9000B70190E00E948A17E7CF512C312C20E03A
:102BA0002032A0F48B3269F030F4803259F0833255
:102BB00069F420612CC08D3239F0803339F4216002
:102BC00026C02260246023C0286021C027FD27C0C2
:102BD00030ED380F3A3078F426FF06C0FAE05F9EF9
:102BE000300D1124532E13C08AE0389E300D11246D
:102BF000332E20620CC08E3221F426FD6BC120647E
:102C000006C08C3611F4206802C0883641F4F60103
:102C100093FD859193FF81916F018111C1CF982F11
:102C20009F7D9554933028F40C5F1F4FFFE3F98389
:102C30000DC0833631F0833771F0833509F05BC006
:102C400022C0F801808189830E5F1F4F4424439482
:102C5000512C540115C03801F2E06F0E711CF801BF
:102C6000A080B18026FF03C0652D70E002C06FEF29
:102C70007FEFC5012C870E947F172C0183012C85D3
:102C80002F77222E17C03801F2E06F0E711CF80169
:102C9000A080B18026FF03C0652D70E002C06FEFF9
:102CA0007FEFC5012C870E9474172C012C852068AA
:102CB000222E830123FC1BC0832D90E04816590669
:102CC000B0F4B70180E290E00E948A173A94F4CF02
:102CD000F50127FC859127FE81915F01B70190E006
:102CE0000E948A1731103A94F1E04F1A51084114AA
:102CF000510471F7E5C0843611F0893639F5F801D1
:102D000027FF07C060817181828193810C5F1F4F13
:102D100008C060817181072E000C880B990B0E5F33
:102D20001F4F2F76722E97FF09C090958095709552
:102D300061957F4F8F4F9F4F2068722E2AE030E0C1
:102D4000A4010E94C217A82EA81844C0853729F4F0
:102D50002F7EB22E2AE030E025C0F22FF97FBF2E61
:102D60008F36C1F018F4883579F0B4C0803719F087
:102D7000883721F0AFC02F2F2061B22EB4FE0DC0D6
:102D80008B2D8460B82E09C024FF0AC09F2F966047
:102D9000B92E06C028E030E005C020E130E002C0D6
:102DA00020E132E0F801B7FE07C0608171818281C5
:102DB00093810C5F1F4F06C06081718180E090E0BD
:102DC0000E5F1F4FA4010E94C217A82EA818FB2D4A
:102DD000FF777F2E76FE0BC0372D3E7FA51450F473
:102DE00074FE0AC072FC08C0372D3E7E05C0BA2CA6
:102DF000372D03C0BA2C01C0B52C34FF0DC0FE0125
:102E0000EA0DF11D8081803311F4397E09C032FF53
:102E100006C0B394B39404C0832F867809F0B394AA
:102E200033FD13C030FF06C05A2CB31418F4530CF2
:102E30005B18B32CB31468F4B70180E290E03C87D0
:102E40000E948A17B3943C85F5CFB31410F43B1855
:102E500001C0312C34FF12C0B70180E390E03C8701
:102E60000E948A173C8532FF17C031FD03C088E7F6
:102E700090E002C088E590E0B7010CC0832F86780F
:102E800059F031FF02C08BE201C080E237FD8DE2D4
:102E9000B70190E00E948A17A51438F4B70180E3C7
:102EA00090E00E948A175A94F7CFAA94F401EA0D91
:102EB000F11D8081B70190E00E948A17A110F5CF23
:102EC000332009F451CEB70180E290E00E948A17C6
:102ED0003A94F6CFF7018681978102C08FEF9FEF7A
:102EE0002C96E2E10C943C18FC0105906150704076
:102EF0000110D8F7809590958E0F9F1F0895FC01C3
:102F00006150704001900110D8F7809590958E0F18
:102F10009F1F08950F931F93CF93DF93FB0123818E
:102F200021FD03C08FEF9FEF28C022FF16C046810E
:102F30005781248135814217530744F4A081B18120
:102F40009D012F5F3F4F318320838C9326813781F2
:102F50002F5F3F4F3783268310C0EB01092F182FB7
:102F60000084F185E02D0995892BE1F68E819F8102
:102F700001969F838E83812F902FDF91CF911F9198
:102F80000F910895FA01AA27283051F1203181F1DB
:102F9000E8946F936E7F6E5F7F4F8F4F9F4FAF4F61
:102FA000B1E03ED0B4E03CD0670F781F891F9A1F74
:102FB000A11D680F791F8A1F911DA11D6A0F711D28
:102FC000811D911DA11D20D009F468943F912AE034
:102FD000269F11243019305D3193DEF6CF0108951C
:102FE000462F4770405D4193B3E00FD0C9F7F6CF4D
:102FF000462F4F70405D4A3318F0495D31FD405215
:10300000419302D0A9F7EACFB4E0A69597958795AA
:1030100077956795BA95C9F7009761057105089589
:103020009B01AC010A2E0694579547953795279535
:10303000BA95C9F7620F731F841F951FA01D0895CD
:103040002F923F924F925F926F927F928F929F92B8
:10305000AF92BF92CF92DF92EF92FF920F931F93A6
:10306000CF93DF93CDB7DEB7CA1BDB0B0FB6F89457
:10307000DEBF0FBECDBF09942A88398848885F8497
:103080006E847D848C849B84AA84B984C884DF8008
:10309000EE80FD800C811B81AA81B981CE0FD11DEC
:1030A0000FB6F894DEBF0FBECDBFED01089510E05E
:1030B000C8EDD0E004C0FE010E94BA142196C93DBB
:0830C000D107C9F7F894FFCF16
:1030C800F401D007040004642323232300FFFE0037
:1030D800FF00019C01B501CF01EA01070226024762
:1030E8000269028E02B502DE020A030000000087B0
:1030F80001030150012E014201CE010000000060D1
:10310800020301B402CC0247025F020D0A004154D7
:103118002B434D474C3D22414C4C220D002B434D37
:10312800474C3A0041542B434D47523D002B434DE9
:103138004752002252454320554E524541442200F1
:103148002252454320524541442200416363657041
:103158007461740041542B435042573D002C2200A7
:103168004552524F52004E7520736C6F7400415493
:103178002B434D47443D00616461323100415400A6
:10318800415426460041542B434C49503D3100419F
:10319800542B434D45453D300041542B434D474644
:1031A8003D310041542B435042533D22534D2200A0
:1031B8004154450047534D204F4B00416E756C619B
:1031C80074210D006B65795B25695D203D202569BB
:1031D800005061726F6C61204F4B210054323430C3
:1031E800204C38203E616323616461656166340068
:1031F80044657A61726D6174210041726D65617A0E
:1032080061210041726D61742100536368696D62C8
:1032180061207061726F6C61007061726F6C612007
:103228006E6F75613A005061726F6C6120736368EC
:10323800696D62617461004C3136203C613C613CCF
:10324800613C613C613C61005061726F6C61206E51
:1032580065736368696D6261746100536972656E54
:103268006120706F726E6974610023232323232306
:10327800232323232323232323230041542B435095
:1032880042523D002B435042520041542B434D477C
:0C329800533D22003E002B434D475300E5
:00000001FF
